{
  "transactions": [
    {
      "hash": "0x0a3d46ce141ea19c2cddccd0ca9d8729a5ca76788b35bdcd2c8e0775616b2859",
      "transactionType": "CALL",
      "contractName": null,
      "contractAddress": "0x598c00ba505de7c9f5059e163570c9059cfcd19f",
      "function": "approve(address,uint256)",
      "arguments": [
        "0x000000000022D473030F116dDEE9F6B43aC78BA3",
        "115792089237316195423570985008687907853269984665640564039457584007913129639935"
      ],
      "transaction": {
        "from": "0xfa2d3c6ae65d9a72c464dafc0bed82062c67d1a7",
        "to": "0x598c00ba505de7c9f5059e163570c9059cfcd19f",
        "gas": "0x107fc",
        "value": "0x0",
        "input": "0x095ea7b3000000000000000000000000000000000022d473030f116ddee9f6b43ac78ba3ffffffffffffffffffffffffffffffffffffffffffffffffffffffffffffffff",
        "nonce": "0x29",
        "chainId": "0xaa36a7"
      },
      "additionalContracts": [],
      "isFixedGasLimit": false
    },
    {
      "hash": "0x12b9cdf7f130481c76d93a4ed8914c40e62bef30227def2539f97403d5bbc1ab",
      "transactionType": "CALL",
      "contractName": null,
      "contractAddress": "0x000000000022d473030f116ddee9f6b43ac78ba3",
      "function": "approve(address,address,uint160,uint48)",
      "arguments": [
        "0x598C00BA505De7c9f5059e163570c9059CFcD19F",
        "0x429ba70129df741B2Ca2a85BC3A2a3328e5c09b4",
        "1461501637330902918203684832716283019655932542975",
        "281474976710655"
      ],
      "transaction": {
        "from": "0xfa2d3c6ae65d9a72c464dafc0bed82062c67d1a7",
        "to": "0x000000000022d473030f116ddee9f6b43ac78ba3",
        "gas": "0x101ee",
        "value": "0x0",
        "input": "0x87517c45000000000000000000000000598c00ba505de7c9f5059e163570c9059cfcd19f000000000000000000000000429ba70129df741b2ca2a85bc3a2a3328e5c09b4000000000000000000000000ffffffffffffffffffffffffffffffffffffffff0000000000000000000000000000000000000000000000000000ffffffffffff",
        "nonce": "0x2a",
        "chainId": "0xaa36a7"
      },
      "additionalContracts": [],
      "isFixedGasLimit": false
    },
    {
      "hash": "0x1a365d0d2f08fb23f3c7a643f9c5724d22190479297a78211717807ab69a724b",
      "transactionType": "CALL",
      "contractName": null,
      "contractAddress": "0x429ba70129df741b2ca2a85bc3a2a3328e5c09b4",
      "function": "modifyLiquidities(bytes,uint256)",
      "arguments": [
        "0x000000000000000000000000000000000000000000000000000000000000004000000000000000000000000000000000000000000000000000000000000000800000000000000000000000000000000000000000000000000000000000000005020b0b0e0e000000000000000000000000000000000000000000000000000000000000000000000000000000000000000000000000000000000000000000000500000000000000000000000000000000000000000000000000000000000000a0000000000000000000000000000000000000000000000000000000000000026000000000000000000000000000000000000000000000000000000000000002e0000000000000000000000000000000000000000000000000000000000000036000000000000000000000000000000000000000000000000000000000000003e000000000000000000000000000000000000000000000000000000000000001a00000000000000000000000000000000000000000000000000000000000000000000000000000000000000000598c00ba505de7c9f5059e163570c9059cfcd19f0000000000000000000000000000000000000000000000000000000000000fa0000000000000000000000000000000000000000000000000000000000000003c000000000000000000000000d82ef7e7cf1b96dadd0703b47274835a996f4880fffffffffffffffffffffffffffffffffffffffffffffffffffffffffffcf9a0fffffffffffffffffffffffffffffffffffffffffffffffffffffffffffcfa9000000000000000000000000000000000000000000000000000008890a0d3f9e400000000000000000000000000000000ffffffffffffffffffffffffffffffff00000000000000000000000000000000ffffffffffffffffffffffffffffffff000000000000000000000000fa2d3c6ae65d9a72c464dafc0bed82062c67d1a70000000000000000000000000000000000000000000000000000000000000180000000000000000000000000000000000000000000000000000000000000000000000000000000000000000000000000000000000000000000000000000000600000000000000000000000000000000000000000000000000000000000000000000000000000000000000000000000000000000000000000000000000000000000000000000000000000000000000000000000000000000000000000000000000000000000000000000000000000000000000000000000000000000000000060000000000000000000000000598c00ba505de7c9f5059e163570c9059cfcd19f0000000000000000000000000000000000000000000000000000000000000000000000000000000000000000000000000000000000000000000000000000000100000000000000000000000000000000000000000000000000000000000000600000000000000000000000000000000000000000000000000000000000000000000000000000000000000000fa2d3c6ae65d9a72c464dafc0bed82062c67d1a700000000000000000000000000000000000000000000000000000000000000000000000000000000000000000000000000000000000000000000000000000060000000000000000000000000598c00ba505de7c9f5059e163570c9059cfcd19f000000000000000000000000fa2d3c6ae65d9a72c464dafc0bed82062c67d1a70000000000000000000000000000000000000000000000000000000000000000",
        "1771487400"
      ],
      "transaction": {
        "from": "0xfa2d3c6ae65d9a72c464dafc0bed82062c67d1a7",
        "to": "0x429ba70129df741b2ca2a85bc3a2a3328e5c09b4",
        "gas": "0x853ce",
        "value": "0x3ff2e795f50000",
        "input": "0xdd46508f0000000000000000000000000000000000000000000000000000000000000040000000000000000000000000000000000000000000000000000000006996c0a80000000000000000000000000000000000000000000000000000000000000500000000000000000000000000000000000000000000000000000000000000004000000000000000000000000000000000000000000000000000000000000000800000000000000000000000000000000000000000000000000000000000000005020b0b0e0e000000000000000000000000000000000000000000000000000000000000000000000000000000000000000000000000000000000000000000000500000000000000000000000000000000000000000000000000000000000000a0000000000000000000000000000000000000000000000000000000000000026000000000000000000000000000000000000000000000000000000000000002e0000000000000000000000000000000000000000000000000000000000000036000000000000000000000000000000000000000000000000000000000000003e000000000000000000000000000000000000000000000000000000000000001a00000000000000000000000000000000000000000000000000000000000000000000000000000000000000000598c00ba505de7c9f5059e163570c9059cfcd19f0000000000000000000000000000000000000000000000000000000000000fa0000000000000000000000000000000000000000000000000000000000000003c000000000000000000000000d82ef7e7cf1b96dadd0703b47274835a996f4880fffffffffffffffffffffffffffffffffffffffffffffffffffffffffffcf9a0fffffffffffffffffffffffffffffffffffffffffffffffffffffffffffcfa9000000000000000000000000000000000000000000000000000008890a0d3f9e400000000000000000000000000000000ffffffffffffffffffffffffffffffff00000000000000000000000000000000ffffffffffffffffffffffffffffffff000000000000000000000000fa2d3c6ae65d9a72c464dafc0bed82062c67d1a70000000000000000000000000000000000000000000000000000000000000180000000000000000000000000000000000000000000000000000000000000000000000000000000000000000000000000000000000000000000000000000000600000000000000000000000000000000000000000000000000000000000000000000000000000000000000000000000000000000000000000000000000000000000000000000000000000000000000000000000000000000000000000000000000000000000000000000000000000000000000000000000000000000000000060000000000000000000000000598c00ba505de7c9f5059e163570c9059cfcd19f0000000000000000000000000000000000000000000000000000000000000000000000000000000000000000000000000000000000000000000000000000000100000000000000000000000000000000000000000000000000000000000000600000000000000000000000000000000000000000000000000000000000000000000000000000000000000000fa2d3c6ae65d9a72c464dafc0bed82062c67d1a700000000000000000000000000000000000000000000000000000000000000000000000000000000000000000000000000000000000000000000000000000060000000000000000000000000598c00ba505de7c9f5059e163570c9059cfcd19f000000000000000000000000fa2d3c6ae65d9a72c464dafc0bed82062c67d1a70000000000000000000000000000000000000000000000000000000000000000",
        "nonce": "0x2b",
        "chainId": "0xaa36a7"
      },
      "additionalContracts": [],
      "isFixedGasLimit": false
    }
  ],
  "receipts": [
    {
      "status": "0x1",
      "cumulativeGasUsed": "0x7fa86f",
      "logs": [
        {
          "address": "0x598c00ba505de7c9f5059e163570c9059cfcd19f",
          "topics": [
            "0x8c5be1e5ebec7d5bd14f71427d1e84f3dd0314c0f7b2291e5b200ac8c7c3b925",
            "0x000000000000000000000000fa2d3c6ae65d9a72c464dafc0bed82062c67d1a7",
            "0x000000000000000000000000000000000022d473030f116ddee9f6b43ac78ba3"
          ],
          "data": "0xffffffffffffffffffffffffffffffffffffffffffffffffffffffffffffffff",
          "blockHash": "0xb11fcd8ee4a03af1e8d876f465451150505f647130526f7dc1a106eb866a8da6",
          "blockNumber": "0x9d0850",
          "blockTimestamp": "0x6996be68",
          "transactionHash": "0x1a365d0d2f08fb23f3c7a643f9c5724d22190479297a78211717807ab69a724b",
          "transactionIndex": "0x3c",
          "logIndex": "0x5f",
          "removed": false
        }
      ],
      "logsBloom": "0x00000000000000400000000002000000000000000000000000000000000000000000000000000000000000000000000000000000800000000000000000200000000000000000000000004000000000000000000000000800000000000000000000000000000000000000000000000400000000000000000000000000000000000000000000000000000000000000000000000000000000000080000000000000020000000000000000000000000000000000000000000000000000000000000000000000000000000000000000000000000000000000000000000000000000000010000000000000000000000000000008000000000002000000000000000000",
      "type": "0x2",
      "transactionHash": "0x1a365d0d2f08fb23f3c7a643f9c5724d22190479297a78211717807ab69a724b",
      "transactionIndex": "0x3c",
      "blockHash": "0xb11fcd8ee4a03af1e8d876f465451150505f647130526f7dc1a106eb866a8da6",
      "blockNumber": "0x9d0850",
      "gasUsed": "0xb481",
      "effectiveGasPrice": "0x1a8180e",
      "from": "0xfa2d3c6ae65d9a72c464dafc0bed82062c67d1a7",
      "to": "0x598c00ba505de7c9f5059e163570c9059cfcd19f",
      "contractAddress": null
    },
    {
      "status": "0x1",
      "cumulativeGasUsed": "0x80632d",
      "logs": [
        {
          "address": "0x000000000022d473030f116ddee9f6b43ac78ba3",
          "topics": [
            "0xda9fa7c1b00402c17d0161b249b1ab8bbec047c5a52207b9c112deffd817036b",
            "0x000000000000000000000000fa2d3c6ae65d9a72c464dafc0bed82062c67d1a7",
            "0x000000000000000000000000598c00ba505de7c9f5059e163570c9059cfcd19f",
            "0x000000000000000000000000429ba70129df741b2ca2a85bc3a2a3328e5c09b4"
          ],
          "data": "0x000000000000000000000000ffffffffffffffffffffffffffffffffffffffff0000000000000000000000000000000000000000000000000000ffffffffffff",
          "blockHash": "0xb11fcd8ee4a03af1e8d876f465451150505f647130526f7dc1a106eb866a8da6",
          "blockNumber": "0x9d0850",
          "blockTimestamp": "0x6996be68",
          "transactionHash": "0x12b9cdf7f130481c76d93a4ed8914c40e62bef30227def2539f97403d5bbc1ab",
          "transactionIndex": "0x3d",
          "logIndex": "0x60",
          "removed": false
        }
      ],
      "logsBloom": "0x00010000000000400000000002000000000800000000000000000000000000000000000000000040080000000000000000000000000000000000000000080000000000000000000000000000000000000000000000000000000000000000000000000000000000000000000000000400000000000000000000000800000000000020000000000000000000000000000000000000040000000000000000000000000000000000000000000000000000000000000000000000000000080000000000000000000000000000000000000000000000001000000040000000000000000000000000000000000000000000000000000000000000000000000000000400",
      "type": "0x2",
      "transactionHash": "0x12b9cdf7f130481c76d93a4ed8914c40e62bef30227def2539f97403d5bbc1ab",
      "transactionIndex": "0x3d",
      "blockHash": "0xb11fcd8ee4a03af1e8d876f465451150505f647130526f7dc1a106eb866a8da6",
      "blockNumber": "0x9d0850",
      "gasUsed": "0xbabe",
      "effectiveGasPrice": "0x1a8180e",
      "from": "0xfa2d3c6ae65d9a72c464dafc0bed82062c67d1a7",
      "to": "0x000000000022d473030f116ddee9f6b43ac78ba3",
      "contractAddress": null
    },
    {
      "status": "0x1",
      "cumulativeGasUsed": "0x866a91",
      "logs": [
        {
          "address": "0x429ba70129df741b2ca2a85bc3a2a3328e5c09b4",
          "topics": [
            "0xddf252ad1be2c89b69c2b068fc378daa952ba7f163c4a11628f55a4df523b3ef",
            "0x0000000000000000000000000000000000000000000000000000000000000000",
            "0x000000000000000000000000fa2d3c6ae65d9a72c464dafc0bed82062c67d1a7",
            "0x0000000000000000000000000000000000000000000000000000000000005c51"
          ],
          "data": "0x",
          "blockHash": "0xb11fcd8ee4a03af1e8d876f465451150505f647130526f7dc1a106eb866a8da6",
          "blockNumber": "0x9d0850",
          "blockTimestamp": "0x6996be68",
          "transactionHash": "0x0a3d46ce141ea19c2cddccd0ca9d8729a5ca76788b35bdcd2c8e0775616b2859",
          "transactionIndex": "0x3e",
          "logIndex": "0x61",
          "removed": false
        },
        {
          "address": "0xe03a1074c86cfedd5c142c4f04f1a1536e203543",
          "topics": [
            "0xf208f4912782fd25c7f114ca3723a2d5dd6f3bcc3ac8db5af63baa85f711d5ec",
            "0x4168b052bf66ccb443868298147b01184d09a06a4ae7a2bc9ffc75d546ea35c5",
            "0x000000000000000000000000429ba70129df741b2ca2a85bc3a2a3328e5c09b4"
          ],
          "data": "0xfffffffffffffffffffffffffffffffffffffffffffffffffffffffffffcf9a0fffffffffffffffffffffffffffffffffffffffffffffffffffffffffffcfa9000000000000000000000000000000000000000000000000000008890a0d3f9e40000000000000000000000000000000000000000000000000000000000005c51",
          "blockHash": "0xb11fcd8ee4a03af1e8d876f465451150505f647130526f7dc1a106eb866a8da6",
          "blockNumber": "0x9d0850",
          "blockTimestamp": "0x6996be68",
          "transactionHash": "0x0a3d46ce141ea19c2cddccd0ca9d8729a5ca76788b35bdcd2c8e0775616b2859",
          "transactionIndex": "0x3e",
          "logIndex": "0x62",
          "removed": false
        },
        {
          "address": "0x598c00ba505de7c9f5059e163570c9059cfcd19f",
          "topics": [
            "0xddf252ad1be2c89b69c2b068fc378daa952ba7f163c4a11628f55a4df523b3ef",
            "0x000000000000000000000000fa2d3c6ae65d9a72c464dafc0bed82062c67d1a7",
            "0x000000000000000000000000e03a1074c86cfedd5c142c4f04f1a1536e203543"
          ],
          "data": "0x0000000000000000000000000000000000000000000000000000000003967b75",
          "blockHash": "0xb11fcd8ee4a03af1e8d876f465451150505f647130526f7dc1a106eb866a8da6",
          "blockNumber": "0x9d0850",
          "blockTimestamp": "0x6996be68",
          "transactionHash": "0x0a3d46ce141ea19c2cddccd0ca9d8729a5ca76788b35bdcd2c8e0775616b2859",
          "transactionIndex": "0x3e",
          "logIndex": "0x63",
          "removed": false
        }
      ],
      "logsBloom": "0x00000000000000400000001002000000000000000000000000000000080000000000000000000040080400000000000000000100000000000000000000000000000000000000000000020008000000000000000400000000000000000000000000000000020000000000000080000c0000000000000010000000081000000000000000200100008000001000000000000000000000000000008000004000000000000400000000000000000000000000000000000040000000000000000000000000000200000000000000000000000000000000000000000000100000002000100000000000000000000000000000000c000000000002000000000000000000",
      "type": "0x2",
      "transactionHash": "0x0a3d46ce141ea19c2cddccd0ca9d8729a5ca76788b35bdcd2c8e0775616b2859",
      "transactionIndex": "0x3e",
      "blockHash": "0xb11fcd8ee4a03af1e8d876f465451150505f647130526f7dc1a106eb866a8da6",
      "blockNumber": "0x9d0850",
      "gasUsed": "0x60764",
      "effectiveGasPrice": "0x1a8180e",
      "from": "0xfa2d3c6ae65d9a72c464dafc0bed82062c67d1a7",
      "to": "0x429ba70129df741b2ca2a85bc3a2a3328e5c09b4",
      "contractAddress": null
    }
  ],
  "libraries": [],
  "pending": [],
  "returns": {},
  "timestamp": 1771486824585,
  "chain": 11155111,
  "commit": "a58428a"
}