{
  "transactions": [
    {
      "hash": "0xc41107b66cd4753e5d50004ca7faea11c7c5cb020bfc1aa172438751f526eb58",
      "transactionType": "CREATE",
      "contractName": "AssetStatusRegistry",
      "contractAddress": "0x1bc8a72fa580c22ae3fc06ab5222cb4845bfd655",
      "function": null,
      "arguments": null,
      "transaction": {
        "from": "0xfa2d3c6ae65d9a72c464dafc0bed82062c67d1a7",
        "gas": "0x4988b",
        "value": "0x0",
        "input": "0x608080604052346071573315605e575f8054336001600160a01b0319821681178355916001600160a01b03909116907f8be0079c531659141344cd1fd0a4f28419497f9722a3daafe3b4186f6b6457e09080a36102c590816100768239f35b631e4fbdf760e01b5f525f60045260245ffd5b5f80fdfe60806040526004361015610011575f80fd5b5f3560e01c8063278e07ce146101a657806330ccebb51461010b578063715018a61461014f57806376057d1a1461010b5780638da5cb5b146100e45763f2fde38b1461005b575f80fd5b346100e05760203660031901126100e05761007461022c565b61007c610269565b6001600160a01b031680156100cd575f80546001600160a01b03198116831782556001600160a01b0316907f8be0079c531659141344cd1fd0a4f28419497f9722a3daafe3b4186f6b6457e09080a3005b631e4fbdf760e01b5f525f60045260245ffd5b5f80fd5b346100e0575f3660031901126100e0575f546040516001600160a01b039091168152602090f35b346100e05760203660031901126100e0576001600160a01b0361012c61022c565b165f52600160205261014b60ff60405f20541660405191829182610242565b0390f35b346100e0575f3660031901126100e057610167610269565b5f80546001600160a01b0319811682556001600160a01b03167f8be0079c531659141344cd1fd0a4f28419497f9722a3daafe3b4186f6b6457e08280a3005b346100e05760403660031901126100e0576101bf61022c565b6024359060048210156100e0576102277f76c0bad3b7f1c74587dcb478154d4c87ae6663db97cc086b981decf4e35a797c916101f9610269565b60018060a01b031692835f52600160205260405f2060ff1981541660ff831617905560405191829182610242565b0390a2005b600435906001600160a01b03821682036100e057565b9190602083019260048210156102555752565b634e487b7160e01b5f52602160045260245ffd5b5f546001600160a01b0316330361027c57565b63118cdaa760e01b5f523360045260245ffdfea26469706673582212203e02f9f4b1f38e126748c61cacf2cebcc3b42d6c07c82a0b88ebe953a19282d564736f6c634300081a0033",
        "nonce": "0x11",
        "chainId": "0xaa36a7"
      },
      "additionalContracts": [],
      "isFixedGasLimit": false
    },
    {
      "hash": "0x6cf843701c82fe9b5b1bd5492f71593f45b3833470085a30d5fbc0f32a2b3c9e",
      "transactionType": "CREATE",
      "contractName": "MockIdentityRegistry",
      "contractAddress": "0x6143459a7a86762c3b73b415ccd14d12e8e42959",
      "function": null,
      "arguments": null,
      "transaction": {
        "from": "0xfa2d3c6ae65d9a72c464dafc0bed82062c67d1a7",
        "gas": "0x23593",
        "value": "0x0",
        "input": "0x6080806040523460155761010c908161001a8239f35b5f80fdfe608060405260043610156010575f80fd5b5f3560e01c80632199d5cd1460775780633af32abf1460365763b9209e33146036575f80fd5b3460735760203660031901126073576004356001600160a01b038116908190036073575f525f602052602060ff60405f2054166040519015158152f35b5f80fd5b3460735760203660031901126073576004356001600160a01b03811690819003607357805f525f60205260405f20600160ff198254161790557f54db7a5cb4735e1aac1f53db512d3390390bb6637bd30ad4bf9fc98667d9b9b95f80a200fea2646970667358221220ed02e7633b415a914a395eb6009de93364985b07798417f5c9b66e406ee6f2d064736f6c634300081a0033",
        "nonce": "0x12",
        "chainId": "0xaa36a7"
      },
      "additionalContracts": [],
      "isFixedGasLimit": false
    },
    {
      "hash": "0x98b068d3185bd95651156b1c1ef3d551cdbf721cce7c7b173ba2e62c5822248e",
      "transactionType": "CREATE2",
      "contractName": "CitadelHook",
      "contractAddress": "0x05708f9db1dc897790552e29c04975aa85298880",
      "function": null,
      "arguments": [
        "0xE03A1074c86CFeDd5C142C4F04F1a1536e203543",
        "0x1bc8A72Fa580C22AE3Fc06Ab5222cB4845bfd655",
        "0x6143459a7a86762c3b73b415CCD14d12e8E42959"
      ],
      "transaction": {
        "from": "0xfa2d3c6ae65d9a72c464dafc0bed82062c67d1a7",
        "to": "0x4e59b44847b379578588920ca78fbf26c0b4956c",
        "gas": "0xfdb19",
        "value": "0x0",
        "input": "0x000000000000000000000000000000000000000000000000000000000000440660a0604052346102c257604051601f610ea238819003918201601f19168301916001600160401b038311848410176102c6578084926060946040528339810103126102c2578051906001600160a01b03821682036102c25761006f6040610068602084016102fa565b92016102fa565b916080525f6101a061007f6102da565b8281528260208201528260408201528260608201528260808201528260a08201528260c08201528260e0820152826101008201528261012082015282610140820152826101608201528261018082015201525f6101a06100dd6102da565b828152826020820152600160408201528260608201528260808201528260a0820152600160c08201528260e0820152826101008201528261012082015282610140820152826101608201528261018082015201526120003016158015906102b5575b80156102a4575b8015610297575b801561028a575b801561027d575b801561026d575b8015610261575b8015610255575b8015610249575b801561023d575b8015610231575b8015610225575b8015610219575b610206575f80546001600160a01b039283166001600160a01b03199182161790915560018054939092169216919091179055604051610b93908161030f823960805181818160c90152818161014f015281816101a10152818161038e015281816103de0152818161048601526108fa0152f35b630732d7b560e51b5f523060045260245ffd5b50600130161515610193565b5060023016151561018c565b50600430161515610185565b5060083016151561017e565b50601030161515610177565b50602030161515610170565b50604030161515610169565b5060803016151560011415610162565b506101003016151561015b565b5061020030161515610154565b506104003016151561014d565b506108003016151560011415610146565b506110003016151561013f565b5f80fd5b634e487b7160e01b5f52604160045260245ffd5b604051906101c082016001600160401b038111838210176102c657604052565b51906001600160a01b03821682036102c25756fe6080806040526004361015610012575f80fd5b5f3560e01c908163134e18f41461093b5750806321d0ee70146108e7578063259982e514610759578063575e24b4146104c35780636c2bbe7e146103cb5780636fe7e6eb14610448578063979d7e86146104215780639f063efc146103cb578063b47b2fb114610336578063b6a8b0fa146100b6578063c4e833ce146101d0578063dc4c90d31461018c578063dc98354e1461011e5763e1b4af69146100b6575f80fd5b3461011a576100c436610a86565b5050507f00000000000000000000000000000000000000000000000000000000000000006001600160a01b03163303925061010b91505057630a85dc2960e01b5f5260045ffd5b63570c108560e11b5f5260045ffd5b5f80fd5b3461011a5760e036600319011261011a5761013761095e565b5060a036602319011261011a5761014c610a70565b507f00000000000000000000000000000000000000000000000000000000000000006001600160a01b0316330361010b57630a85dc2960e01b5f5260045ffd5b3461011a575f36600319011261011a576040517f00000000000000000000000000000000000000000000000000000000000000006001600160a01b03168152602090f35b3461011a575f36600319011261011a575f6101a06040516101f081610ade565b8281528260208201528260408201528260608201528260808201528260a08201528260c08201528260e0820152826101008201528261012082015282610140820152826101608201528261018082015201526101c0602060405161025381610ade565b5f8152818101905f82526040810160018152606082015f8152608083015f815260a084015f815260c085016001815260e08601905f82526101008701925f84526101208801945f86526101408901965f88526101608a01985f8a526101a06101808c019b5f8d52019b5f8d526040519d8e915f835251151591015251151560408d015251151560608c015251151560808b015251151560a08a015251151560c089015251151560e08801525115156101008701525115156101208601525115156101408501525115156101608401525115156101808301525115156101a0820152f35b3461011a5761016036600319011261011a5761035061095e565b5060a036602319011261011a5760603660c319011261011a576101443567ffffffffffffffff811161011a5761038a903690600401610974565b50507f00000000000000000000000000000000000000000000000000000000000000006001600160a01b0316330361010b57630a85dc2960e01b5f5260045ffd5b3461011a576103d936610a06565b5050507f00000000000000000000000000000000000000000000000000000000000000006001600160a01b03163303935061010b9250505057630a85dc2960e01b5f5260045ffd5b3461011a575f36600319011261011a575f546040516001600160a01b039091168152602090f35b3461011a5761010036600319011261011a5761046261095e565b5060a036602319011261011a57610477610a70565b5060e4358060020b0361011a577f00000000000000000000000000000000000000000000000000000000000000006001600160a01b0316330361010b57630a85dc2960e01b5f5260045ffd5b3461011a5761014036600319011261011a576104dd61095e565b5060a036602319011261011a5760603660c319011261011a576101243567ffffffffffffffff811161011a57610517903690600401610974565b505060015460405163b9209e3360e01b815232600482015290602090829060249082906001600160a01b03165afa9081156106af575f9161071e575b50156106d9575f546001600160a01b03908116906024359081169081810361011a5750604051906330ccebb560e01b82526004820152602081602481855afa9081156106af575f916106ba575b50600481101561066c57159081610619575b50156105d55760606040516315d7892d60e21b81525f60208201525f6040820152f35b606460405162461bcd60e51b815260206004820152602060248201527f4369746164656c3a2041737365742046726f7a656e2f4c697469676174696f6e6044820152fd5b90506044356001600160a01b03811680820361011a57602091506024604051809481936330ccebb560e01b835260048301525afa9081156106af575f91610680575b50600481101561066c5715816105b2565b634e487b7160e01b5f52602160045260245ffd5b6106a2915060203d6020116106a8575b61069a8183610b0f565b810190610b45565b8161065b565b503d610690565b6040513d5f823e3d90fd5b6106d3915060203d6020116106a85761069a8183610b0f565b826105a0565b60405162461bcd60e51b815260206004820152601760248201527f4369746164656c3a2055736572204e6f74204b594327640000000000000000006044820152606490fd5b90506020813d602011610751575b8161073960209383610b0f565b8101031261011a5751801515810361011a5781610553565b3d915061072c565b3461011a57610767366109a2565b505060015460405163b9209e3360e01b815232600482015292935060209150829060249082906001600160a01b03165afa9081156106af575f916108ac575b50156106d9575f546001600160a01b03908116906107c383610b31565b6040516330ccebb560e01b815291166004820152602081602481855afa9081156106af575f9161088d575b50600481101561066c57159182610819575b5050156105d55760405163259982e560e01b8152602090f35b9091506020906001600160a01b0390610833908301610b31565b166024604051809481936330ccebb560e01b835260048301525afa9081156106af575f9161086e575b50600481101561066c57158180610800565b610887915060203d6020116106a85761069a8183610b0f565b8161085c565b6108a6915060203d6020116106a85761069a8183610b0f565b836107ee565b90506020813d6020116108df575b816108c760209383610b0f565b8101031261011a5751801515810361011a57826107a6565b3d91506108ba565b3461011a576108f5366109a2565b5050507f00000000000000000000000000000000000000000000000000000000000000006001600160a01b03163303915061010b905057630a85dc2960e01b5f5260045ffd5b3461011a575f36600319011261011a576001546001600160a01b03168152602090f35b600435906001600160a01b038216820361011a57565b9181601f8401121561011a5782359167ffffffffffffffff831161011a576020838186019501011161011a57565b9061016060031983011261011a576004356001600160a01b038116810361011a579160a060231982011261011a57602491608060c31983011261011a5760c491610144359067ffffffffffffffff821161011a57610a0291600401610974565b9091565b906101a060031983011261011a576004356001600160a01b038116810361011a579160a060231982011261011a57602491608060c31983011261011a5760c49161014435916101643591610184359067ffffffffffffffff821161011a57610a0291600401610974565b60c435906001600160a01b038216820361011a57565b61012060031982011261011a576004356001600160a01b038116810361011a579160a060231983011261011a5760249160c4359160e43591610104359067ffffffffffffffff821161011a57610a0291600401610974565b6101c0810190811067ffffffffffffffff821117610afb57604052565b634e487b7160e01b5f52604160045260245ffd5b90601f8019910116810190811067ffffffffffffffff821117610afb57604052565b356001600160a01b038116810361011a5790565b9081602091031261011a5751600481101561011a579056fea264697066735822122060169040fb79d498fb4ecfc83069ae47017dc7f30f5f47978766b3a8a566cf1964736f6c634300081a0033000000000000000000000000e03a1074c86cfedd5c142c4f04f1a1536e2035430000000000000000000000001bc8a72fa580c22ae3fc06ab5222cb4845bfd6550000000000000000000000006143459a7a86762c3b73b415ccd14d12e8e42959",
        "nonce": "0x13",
        "chainId": "0xaa36a7"
      },
      "additionalContracts": [],
      "isFixedGasLimit": false
    },
    {
      "hash": "0x31be1a05ab65c129b2d2b2f46270a59343e1631ef085e5f95cb0175b1b0bbc62",
      "transactionType": "CALL",
      "contractName": "AssetStatusRegistry",
      "contractAddress": "0x1bc8a72fa580c22ae3fc06ab5222cb4845bfd655",
      "function": "setStatus(address,uint8)",
      "arguments": [
        "0xaA8E23Fb1079EA71e0a56F48a2aA51851D8433D0",
        "0"
      ],
      "transaction": {
        "from": "0xfa2d3c6ae65d9a72c464dafc0bed82062c67d1a7",
        "to": "0x1bc8a72fa580c22ae3fc06ab5222cb4845bfd655",
        "gas": "0x95b9",
        "value": "0x0",
        "input": "0x278e07ce000000000000000000000000aa8e23fb1079ea71e0a56f48a2aa51851d8433d00000000000000000000000000000000000000000000000000000000000000000",
        "nonce": "0x14",
        "chainId": "0xaa36a7"
      },
      "additionalContracts": [],
      "isFixedGasLimit": false
    },
    {
      "hash": "0x02de4aa1fc9833c86a77eea9ebd4817699ee1868bff42fae29bb6e29988f53c3",
      "transactionType": "CALL",
      "contractName": "AssetStatusRegistry",
      "contractAddress": "0x1bc8a72fa580c22ae3fc06ab5222cb4845bfd655",
      "function": "setStatus(address,uint8)",
      "arguments": [
        "0x0000000000000000000000000000000000000000",
        "0"
      ],
      "transaction": {
        "from": "0xfa2d3c6ae65d9a72c464dafc0bed82062c67d1a7",
        "to": "0x1bc8a72fa580c22ae3fc06ab5222cb4845bfd655",
        "gas": "0x946d",
        "value": "0x0",
        "input": "0x278e07ce00000000000000000000000000000000000000000000000000000000000000000000000000000000000000000000000000000000000000000000000000000000",
        "nonce": "0x15",
        "chainId": "0xaa36a7"
      },
      "additionalContracts": [],
      "isFixedGasLimit": false
    },
    {
      "hash": "0x9ad02d9d18ce8134e951eb6b3906e490e989afd45066ee79cc1d8608e7ebe308",
      "transactionType": "CALL",
      "contractName": "MockIdentityRegistry",
      "contractAddress": "0x6143459a7a86762c3b73b415ccd14d12e8e42959",
      "function": "registerUser(address)",
      "arguments": [
        "0xFa2D3c6aE65d9a72C464DafC0BeD82062c67D1a7"
      ],
      "transaction": {
        "from": "0xfa2d3c6ae65d9a72c464dafc0bed82062c67d1a7",
        "to": "0x6143459a7a86762c3b73b415ccd14d12e8e42959",
        "gas": "0x100a3",
        "value": "0x0",
        "input": "0x2199d5cd000000000000000000000000fa2d3c6ae65d9a72c464dafc0bed82062c67d1a7",
        "nonce": "0x16",
        "chainId": "0xaa36a7"
      },
      "additionalContracts": [],
      "isFixedGasLimit": false
    }
  ],
  "receipts": [
    {
      "status": "0x1",
      "cumulativeGasUsed": "0xb65c71",
      "logs": [
        {
          "address": "0x1bc8a72fa580c22ae3fc06ab5222cb4845bfd655",
          "topics": [
            "0x8be0079c531659141344cd1fd0a4f28419497f9722a3daafe3b4186f6b6457e0",
            "0x0000000000000000000000000000000000000000000000000000000000000000",
            "0x000000000000000000000000fa2d3c6ae65d9a72c464dafc0bed82062c67d1a7"
          ],
          "data": "0x",
          "blockHash": "0x9587d5a5e31f54b8a6b38e3452ed8a29a7a5f8e78025243253e3c129177e85e0",
          "blockNumber": "0x9cc2b2",
          "blockTimestamp": "0x69934440",
          "transactionHash": "0x31be1a05ab65c129b2d2b2f46270a59343e1631ef085e5f95cb0175b1b0bbc62",
          "transactionIndex": "0x49",
          "logIndex": "0x6f",
          "removed": false
        }
      ],
      "logsBloom": "0x00000000000000400000000002000000000000000000000000800000000000000000000000000000000000000100000000000000000000000000000000000000000000000000000000000000000000000001000000000000000100000000000000000000020000000000000000000c00000000000000000000000000000000400000000000000000000000000000000000000000000000000000000000000000000000000000000000000000000000000000000000000000000000000000000000000000000000000000000000000000020000000000000000000000000020000000000000000000000000000000000000000000000000000000000000000000",
      "type": "0x2",
      "transactionHash": "0x31be1a05ab65c129b2d2b2f46270a59343e1631ef085e5f95cb0175b1b0bbc62",
      "transactionIndex": "0x49",
      "blockHash": "0x9587d5a5e31f54b8a6b38e3452ed8a29a7a5f8e78025243253e3c129177e85e0",
      "blockNumber": "0x9cc2b2",
      "gasUsed": "0x38909",
      "effectiveGasPrice": "0xe6af7ccc",
      "from": "0xfa2d3c6ae65d9a72c464dafc0bed82062c67d1a7",
      "to": null,
      "contractAddress": "0x1bc8a72fa580c22ae3fc06ab5222cb4845bfd655"
    },
    {
      "status": "0x1",
      "cumulativeGasUsed": "0xb80f80",
      "logs": [],
      "logsBloom": "0x00000000000000000000000000000000000000000000000000000000000000000000000000000000000000000000000000000000000000000000000000000000000000000000000000000000000000000000000000000000000000000000000000000000000000000000000000000000000000000000000000000000000000000000000000000000000000000000000000000000000000000000000000000000000000000000000000000000000000000000000000000000000000000000000000000000000000000000000000000000000000000000000000000000000000000000000000000000000000000000000000000000000000000000000000000000",
      "type": "0x2",
      "transactionHash": "0x6cf843701c82fe9b5b1bd5492f71593f45b3833470085a30d5fbc0f32a2b3c9e",
      "transactionIndex": "0x4a",
      "blockHash": "0x9587d5a5e31f54b8a6b38e3452ed8a29a7a5f8e78025243253e3c129177e85e0",
      "blockNumber": "0x9cc2b2",
      "gasUsed": "0x1b30f",
      "effectiveGasPrice": "0xe6af7ccc",
      "from": "0xfa2d3c6ae65d9a72c464dafc0bed82062c67d1a7",
      "to": null,
      "contractAddress": "0x6143459a7a86762c3b73b415ccd14d12e8e42959"
    },
    {
      "status": "0x1",
      "cumulativeGasUsed": "0xc38a37",
      "logs": [],
      "logsBloom": "0x00000000000000000000000000000000000000000000000000000000000000000000000000000000000000000000000000000000000000000000000000000000000000000000000000000000000000000000000000000000000000000000000000000000000000000000000000000000000000000000000000000000000000000000000000000000000000000000000000000000000000000000000000000000000000000000000000000000000000000000000000000000000000000000000000000000000000000000000000000000000000000000000000000000000000000000000000000000000000000000000000000000000000000000000000000000",
      "type": "0x2",
      "transactionHash": "0xc41107b66cd4753e5d50004ca7faea11c7c5cb020bfc1aa172438751f526eb58",
      "transactionIndex": "0x4b",
      "blockHash": "0x9587d5a5e31f54b8a6b38e3452ed8a29a7a5f8e78025243253e3c129177e85e0",
      "blockNumber": "0x9cc2b2",
      "gasUsed": "0xb7ab7",
      "effectiveGasPrice": "0xe6af7ccc",
      "from": "0xfa2d3c6ae65d9a72c464dafc0bed82062c67d1a7",
      "to": "0x4e59b44847b379578588920ca78fbf26c0b4956c",
      "contractAddress": "0x05708f9db1dc897790552e29c04975aa85298880"
    },
    {
      "status": "0x1",
      "cumulativeGasUsed": "0xc3f69d",
      "logs": [
        {
          "address": "0x1bc8a72fa580c22ae3fc06ab5222cb4845bfd655",
          "topics": [
            "0x76c0bad3b7f1c74587dcb478154d4c87ae6663db97cc086b981decf4e35a797c",
            "0x000000000000000000000000aa8e23fb1079ea71e0a56f48a2aa51851d8433d0"
          ],
          "data": "0x0000000000000000000000000000000000000000000000000000000000000000",
          "blockHash": "0x9587d5a5e31f54b8a6b38e3452ed8a29a7a5f8e78025243253e3c129177e85e0",
          "blockNumber": "0x9cc2b2",
          "blockTimestamp": "0x69934440",
          "transactionHash": "0x98b068d3185bd95651156b1c1ef3d551cdbf721cce7c7b173ba2e62c5822248e",
          "transactionIndex": "0x4c",
          "logIndex": "0x70",
          "removed": false
        }
      ],
      "logsBloom": "0x00000000000000000000000000000000000000000000000000000000000000000000000000000000000000000100100000000000000000000000000000000000000000000000000000000000000000000000000000000000000100000000000000000000000000000000000080000000000000000000000000000000000000000000000000000000000000000000000000000000000000000000000000000000000000000000000000000000000000000000000000000000000004000000000000000000000000000000000000000000020000000000000000000000000000000000000000000000000000000000000100010000000000000000000008000000",
      "type": "0x2",
      "transactionHash": "0x98b068d3185bd95651156b1c1ef3d551cdbf721cce7c7b173ba2e62c5822248e",
      "transactionIndex": "0x4c",
      "blockHash": "0x9587d5a5e31f54b8a6b38e3452ed8a29a7a5f8e78025243253e3c129177e85e0",
      "blockNumber": "0x9cc2b2",
      "gasUsed": "0x6c66",
      "effectiveGasPrice": "0xe6af7ccc",
      "from": "0xfa2d3c6ae65d9a72c464dafc0bed82062c67d1a7",
      "to": "0x1bc8a72fa580c22ae3fc06ab5222cb4845bfd655",
      "contractAddress": null
    },
    {
      "status": "0x1",
      "cumulativeGasUsed": "0xc46213",
      "logs": [
        {
          "address": "0x1bc8a72fa580c22ae3fc06ab5222cb4845bfd655",
          "topics": [
            "0x76c0bad3b7f1c74587dcb478154d4c87ae6663db97cc086b981decf4e35a797c",
            "0x0000000000000000000000000000000000000000000000000000000000000000"
          ],
          "data": "0x0000000000000000000000000000000000000000000000000000000000000000",
          "blockHash": "0x9587d5a5e31f54b8a6b38e3452ed8a29a7a5f8e78025243253e3c129177e85e0",
          "blockNumber": "0x9cc2b2",
          "blockTimestamp": "0x69934440",
          "transactionHash": "0x9ad02d9d18ce8134e951eb6b3906e490e989afd45066ee79cc1d8608e7ebe308",
          "transactionIndex": "0x4d",
          "logIndex": "0x71",
          "removed": false
        }
      ],
      "logsBloom": "0x00000000000000000000000000000000000000000000000000000000000000000000000000000000000000000100100000000000000000000000000000000000000000000000000000000000000000000000000000000000000100000000000000000000020000000000000000000800000000000000000000000000000000000000000000000000000000000000000000000000000000000000000000000000000000000000000000000000000000000000000000000000000000000000000000000000000000000000000000000000020000000000000000000000000020000000000000000000000000000000000100000000000000000000000008000000",
      "type": "0x2",
      "transactionHash": "0x9ad02d9d18ce8134e951eb6b3906e490e989afd45066ee79cc1d8608e7ebe308",
      "transactionIndex": "0x4d",
      "blockHash": "0x9587d5a5e31f54b8a6b38e3452ed8a29a7a5f8e78025243253e3c129177e85e0",
      "blockNumber": "0x9cc2b2",
      "gasUsed": "0x6b76",
      "effectiveGasPrice": "0xe6af7ccc",
      "from": "0xfa2d3c6ae65d9a72c464dafc0bed82062c67d1a7",
      "to": "0x1bc8a72fa580c22ae3fc06ab5222cb4845bfd655",
      "contractAddress": null
    },
    {
      "status": "0x1",
      "cumulativeGasUsed": "0xc5118e",
      "logs": [
        {
          "address": "0x6143459a7a86762c3b73b415ccd14d12e8e42959",
          "topics": [
            "0x54db7a5cb4735e1aac1f53db512d3390390bb6637bd30ad4bf9fc98667d9b9b9",
            "0x000000000000000000000000fa2d3c6ae65d9a72c464dafc0bed82062c67d1a7"
          ],
          "data": "0x",
          "blockHash": "0x9587d5a5e31f54b8a6b38e3452ed8a29a7a5f8e78025243253e3c129177e85e0",
          "blockNumber": "0x9cc2b2",
          "blockTimestamp": "0x69934440",
          "transactionHash": "0x02de4aa1fc9833c86a77eea9ebd4817699ee1868bff42fae29bb6e29988f53c3",
          "transactionIndex": "0x4e",
          "logIndex": "0x72",
          "removed": false
        }
      ],
      "logsBloom": "0x00000000000000400000000002000000000000000000000000000000000000000000000000000000000000000000000000000000000000000000000000004000000000000000000000000000000000000000000000000400000000000000000000000000000000000000000000000400000000000000000000000000000000000000000000000000000000000000000000000000000000000040000000000000000000000000000100000000000000000000000000000000000000004000000000000000000000000000000000000000000000000000000000000000000000000000000000000000000000000000000000000000000000000000000000000020",
      "type": "0x2",
      "transactionHash": "0x02de4aa1fc9833c86a77eea9ebd4817699ee1868bff42fae29bb6e29988f53c3",
      "transactionIndex": "0x4e",
      "blockHash": "0x9587d5a5e31f54b8a6b38e3452ed8a29a7a5f8e78025243253e3c129177e85e0",
      "blockNumber": "0x9cc2b2",
      "gasUsed": "0xaf7b",
      "effectiveGasPrice": "0xe6af7ccc",
      "from": "0xfa2d3c6ae65d9a72c464dafc0bed82062c67d1a7",
      "to": "0x6143459a7a86762c3b73b415ccd14d12e8e42959",
      "contractAddress": null
    }
  ],
  "libraries": [],
  "pending": [],
  "returns": {},
  "timestamp": 1771259025567,
  "chain": 11155111,
  "commit": "d77a9ed"
}