{
  "transactions": [
    {
      "hash": "0x680c11ad8164c8a1fe2d86f1e2e8020072d08cd7cedd430402b88ae86161fc9f",
      "transactionType": "CALL",
      "contractName": null,
      "contractAddress": "0xe03a1074c86cfedd5c142c4f04f1a1536e203543",
      "function": "initialize((address,address,uint24,int24,address),uint160)",
      "arguments": [
        "(0x0000000000000000000000000000000000000000, 0xaA8E23Fb1079EA71e0a56F48a2aA51851D8433D0, 3000, 60, 0x05708f9DB1Dc897790552e29C04975Aa85298880)",
        "3543191142285914378072636784640"
      ],
      "transaction": {
        "from": "0xfa2d3c6ae65d9a72c464dafc0bed82062c67d1a7",
        "to": "0xe03a1074c86cfedd5c142c4f04f1a1536e203543",
        "gas": "0x1285a",
        "value": "0x0",
        "input": "0x6276cbbe0000000000000000000000000000000000000000000000000000000000000000000000000000000000000000aa8e23fb1079ea71e0a56f48a2aa51851d8433d00000000000000000000000000000000000000000000000000000000000000bb8000000000000000000000000000000000000000000000000000000000000003c00000000000000000000000005708f9db1dc897790552e29c04975aa85298880000000000000000000000000000000000000002cb8ab04fbe3a4000000000000",
        "nonce": "0x17",
        "chainId": "0xaa36a7"
      },
      "additionalContracts": [],
      "isFixedGasLimit": false
    }
  ],
  "receipts": [
    {
      "status": "0x1",
      "cumulativeGasUsed": "0x55cff1",
      "logs": [
        {
          "address": "0xe03a1074c86cfedd5c142c4f04f1a1536e203543",
          "topics": [
            "0xdd466e674ea557f56295e2d0218a125ea4b4f0f6f3307b95f85e6110838d6438",
            "0x25b1460fe79e6d25e3881bb3b31ad09bd7caf8961fc70d8b3f36d1cbf0dd3cb6",
            "0x0000000000000000000000000000000000000000000000000000000000000000",
            "0x000000000000000000000000aa8e23fb1079ea71e0a56f48a2aa51851d8433d0"
          ],
          "data": "0x0000000000000000000000000000000000000000000000000000000000000bb8000000000000000000000000000000000000000000000000000000000000003c00000000000000000000000005708f9db1dc897790552e29c04975aa85298880000000000000000000000000000000000000002cb8ab04fbe3a400000000000000000000000000000000000000000000000000000000000000000000000128ec",
          "blockHash": "0xa5c40ce90a963170d9a1bb3d26fd87c34633a17d15dbfc30b671b29e306e45dd",
          "blockNumber": "0x9cc2e6",
          "blockTimestamp": "0x699346b0",
          "transactionHash": "0x680c11ad8164c8a1fe2d86f1e2e8020072d08cd7cedd430402b88ae86161fc9f",
          "transactionIndex": "0x4a",
          "logIndex": "0x75",
          "removed": false
        }
      ],
      "logsBloom": "0x00000000000000000000000000000000000000000000000000000000000000000000000000000000000000000000000000000100000000000000000000000000004000000000000000000000000000000000400000000000000000000000000000000000020000000000000080000800000000000000100000000000000000000000000000000008001000000000000000000001000000000000000000200000000000000000000000000000000000000000000000000000000004000000000000000000000000000000000000000000000000000000000000000000000020001000000000000000000000000000000000010000000000000000000000000000",
      "type": "0x2",
      "transactionHash": "0x680c11ad8164c8a1fe2d86f1e2e8020072d08cd7cedd430402b88ae86161fc9f",
      "transactionIndex": "0x4a",
      "blockHash": "0xa5c40ce90a963170d9a1bb3d26fd87c34633a17d15dbfc30b671b29e306e45dd",
      "blockNumber": "0x9cc2e6",
      "gasUsed": "0xcaa3",
      "effectiveGasPrice": "0xf3ea8b4a",
      "from": "0xfa2d3c6ae65d9a72c464dafc0bed82062c67d1a7",
      "to": "0xe03a1074c86cfedd5c142c4f04f1a1536e203543",
      "contractAddress": null
    }
  ],
  "libraries": [],
  "pending": [],
  "returns": {},
  "timestamp": 1771259569819,
  "chain": 11155111,
  "commit": "d77a9ed"
}