{
  "transactions": [
    {
      "hash": "0xd41d445e8a0fc5d6c9fe10cd8a36da241742fd88a66598d2cf765c95c7e80f39",
      "transactionType": "CALL",
      "contractName": null,
      "contractAddress": "0xe03a1074c86cfedd5c142c4f04f1a1536e203543",
      "function": "initialize((address,address,uint24,int24,address),uint160)",
      "arguments": [
        "(0x0000000000000000000000000000000000000000, 0xaA8E23Fb1079EA71e0a56F48a2aA51851D8433D0, 10000, 60, 0xd82eF7E7CF1B96daDD0703b47274835a996f4880)",
        "3961537733323809029291867"
      ],
      "transaction": {
        "from": "0xfa2d3c6ae65d9a72c464dafc0bed82062c67d1a7",
        "to": "0xe03a1074c86cfedd5c142c4f04f1a1536e203543",
        "gas": "0x128f1",
        "value": "0x0",
        "input": "0x6276cbbe0000000000000000000000000000000000000000000000000000000000000000000000000000000000000000aa8e23fb1079ea71e0a56f48a2aa51851d8433d00000000000000000000000000000000000000000000000000000000000002710000000000000000000000000000000000000000000000000000000000000003c000000000000000000000000d82ef7e7cf1b96dadd0703b47274835a996f48800000000000000000000000000000000000000000000346e3640e438a30eaff5b",
        "nonce": "0x26",
        "chainId": "0xaa36a7"
      },
      "additionalContracts": [],
      "isFixedGasLimit": false
    }
  ],
  "receipts": [
    {
      "status": "0x1",
      "cumulativeGasUsed": "0x694078",
      "logs": [
        {
          "address": "0xe03a1074c86cfedd5c142c4f04f1a1536e203543",
          "topics": [
            "0xdd466e674ea557f56295e2d0218a125ea4b4f0f6f3307b95f85e6110838d6438",
            "0xccf05be237fc6d915f914149ecc019305d0b8869b966d2674aacf413ffa12503",
            "0x0000000000000000000000000000000000000000000000000000000000000000",
            "0x000000000000000000000000aa8e23fb1079ea71e0a56f48a2aa51851d8433d0"
          ],
          "data": "0x0000000000000000000000000000000000000000000000000000000000002710000000000000000000000000000000000000000000000000000000000000003c000000000000000000000000d82ef7e7cf1b96dadd0703b47274835a996f48800000000000000000000000000000000000000000000346e3640e438a30eaff5bfffffffffffffffffffffffffffffffffffffffffffffffffffffffffffcfa41",
          "blockHash": "0x949b987a89f1dc331360ad08e3fe549062e59f00080b294a995803855698d641",
          "blockNumber": "0x9d0734",
          "blockTimestamp": "0x6996b070",
          "transactionHash": "0xd41d445e8a0fc5d6c9fe10cd8a36da241742fd88a66598d2cf765c95c7e80f39",
          "transactionIndex": "0x3b",
          "logIndex": "0x77",
          "removed": false
        }
      ],
      "logsBloom": "0x00000000000000000000000000000000000000000000000000000000000000000000000000000000000000000000000000000100000010000000000000000000000000000000000000000000000000000000000000000000000000000000000000000000020000000000000080000800000000000000100000000000000000000000000000000008000000000000000000000001000000000000000000200000000000000000000000000000000000000000000000000000000004000000400000000000000000000000000000000000000000000000000000000000000020001000000000000000000000000000000000010000000000000000000040000000",
      "type": "0x2",
      "transactionHash": "0xd41d445e8a0fc5d6c9fe10cd8a36da241742fd88a66598d2cf765c95c7e80f39",
      "transactionIndex": "0x3b",
      "blockHash": "0x949b987a89f1dc331360ad08e3fe549062e59f00080b294a995803855698d641",
      "blockNumber": "0x9d0734",
      "gasUsed": "0xcb0a",
      "effectiveGasPrice": "0x1957635",
      "from": "0xfa2d3c6ae65d9a72c464dafc0bed82062c67d1a7",
      "to": "0xe03a1074c86cfedd5c142c4f04f1a1536e203543",
      "contractAddress": null
    }
  ],
  "libraries": [],
  "pending": [],
  "returns": {},
  "timestamp": 1771483249674,
  "chain": 11155111,
  "commit": "a58428a"
}