{
  "transactions": [
    {
      "hash": "0x34680f4c285f57a7ae90374d4a2b48b6f6bf4d6442d52473288b1b6ef55cd685",
      "transactionType": "CALL",
      "contractName": null,
      "contractAddress": "0xe03a1074c86cfedd5c142c4f04f1a1536e203543",
      "function": "initialize((address,address,uint24,int24,address),uint160)",
      "arguments": [
        "(0x0000000000000000000000000000000000000000, 0xaA8E23Fb1079EA71e0a56F48a2aA51851D8433D0, 3000, 60, 0x1Feb5f1EAb62E1a00E6CD0577e14486955774880)",
        "3540919915770511986544896723747"
      ],
      "transaction": {
        "from": "0xfa2d3c6ae65d9a72c464dafc0bed82062c67d1a7",
        "to": "0xe03a1074c86cfedd5c142c4f04f1a1536e203543",
        "gas": "0x117e9",
        "value": "0x0",
        "input": "0x6276cbbe0000000000000000000000000000000000000000000000000000000000000000000000000000000000000000aa8e23fb1079ea71e0a56f48a2aa51851d8433d00000000000000000000000000000000000000000000000000000000000000bb8000000000000000000000000000000000000000000000000000000000000003c0000000000000000000000001feb5f1eab62e1a00e6cd0577e14486955774880000000000000000000000000000000000000002cb1544e0fc76786ea12014b23",
        "nonce": "0x1e",
        "chainId": "0xaa36a7"
      },
      "additionalContracts": [],
      "isFixedGasLimit": false
    }
  ],
  "receipts": [
    {
      "status": "0x1",
      "cumulativeGasUsed": "0x7c03cd",
      "logs": [
        {
          "address": "0xe03a1074c86cfedd5c142c4f04f1a1536e203543",
          "topics": [
            "0xdd466e674ea557f56295e2d0218a125ea4b4f0f6f3307b95f85e6110838d6438",
            "0x5a6fe7fe83c74cf5c722bee5ce36d14c14fbc0a969f3dd6d3ed3a49529be7382",
            "0x0000000000000000000000000000000000000000000000000000000000000000",
            "0x000000000000000000000000aa8e23fb1079ea71e0a56f48a2aa51851d8433d0"
          ],
          "data": "0x0000000000000000000000000000000000000000000000000000000000000bb8000000000000000000000000000000000000000000000000000000000000003c0000000000000000000000001feb5f1eab62e1a00e6cd0577e14486955774880000000000000000000000000000000000000002cb1544e0fc76786ea12014b2300000000000000000000000000000000000000000000000000000000000128e0",
          "blockHash": "0xdb92c5b48e2722faa3cc62b8788c5c27b9b3f69d8e4a3d88eb9770e1c75549e8",
          "blockNumber": "0x9cf37a",
          "blockTimestamp": "0x6995b5b4",
          "transactionHash": "0x34680f4c285f57a7ae90374d4a2b48b6f6bf4d6442d52473288b1b6ef55cd685",
          "transactionIndex": "0x4a",
          "logIndex": "0x85",
          "removed": false
        }
      ],
      "logsBloom": "0x00000000000000000000000000000000000000000000000000000000000000000000000000000000000000000000000000000100000000000000000000000000000000000000000000000000000000000000000000000000000000100000000000000000020000000000000080000800000000000000100000000000000000000000000000000208000000000000000000000001000000000000000000200000000000000000000000000000000010000000000000000000000004000000000000000000000000000000000000000000000000000000000000000000000020001000000000000000000000000000000000010000000000000000000000000000",
      "type": "0x2",
      "transactionHash": "0x34680f4c285f57a7ae90374d4a2b48b6f6bf4d6442d52473288b1b6ef55cd685",
      "transactionIndex": "0x4a",
      "blockHash": "0xdb92c5b48e2722faa3cc62b8788c5c27b9b3f69d8e4a3d88eb9770e1c75549e8",
      "blockNumber": "0x9cf37a",
      "gasUsed": "0xcaa7",
      "effectiveGasPrice": "0x66fd6997",
      "from": "0xfa2d3c6ae65d9a72c464dafc0bed82062c67d1a7",
      "to": "0xe03a1074c86cfedd5c142c4f04f1a1536e203543",
      "contractAddress": null
    }
  ],
  "libraries": [],
  "pending": [],
  "returns": {},
  "timestamp": 1771419060875,
  "chain": 11155111,
  "commit": "a58428a"
}