{
  "transactions": [
    {
      "hash": "0x631c3370e6aa7a1655b6b5e3811be26623957282768938565879fe88de816ffd",
      "transactionType": "CALL",
      "contractName": null,
      "contractAddress": "0xe03a1074c86cfedd5c142c4f04f1a1536e203543",
      "function": "initialize((address,address,uint24,int24,address),uint160)",
      "arguments": [
        "(0x0000000000000000000000000000000000000000, 0x598C00BA505De7c9f5059e163570c9059CFcD19F, 4000, 60, 0xd82eF7E7CF1B96daDD0703b47274835a996f4880)",
        "3961537733323809029291867"
      ],
      "transaction": {
        "from": "0xfa2d3c6ae65d9a72c464dafc0bed82062c67d1a7",
        "to": "0xe03a1074c86cfedd5c142c4f04f1a1536e203543",
        "gas": "0x11860",
        "value": "0x0",
        "input": "0x6276cbbe0000000000000000000000000000000000000000000000000000000000000000000000000000000000000000598c00ba505de7c9f5059e163570c9059cfcd19f0000000000000000000000000000000000000000000000000000000000000fa0000000000000000000000000000000000000000000000000000000000000003c000000000000000000000000d82ef7e7cf1b96dadd0703b47274835a996f48800000000000000000000000000000000000000000000346e3640e438a30eaff5b",
        "nonce": "0x28",
        "chainId": "0xaa36a7"
      },
      "additionalContracts": [],
      "isFixedGasLimit": false
    }
  ],
  "receipts": [
    {
      "status": "0x1",
      "cumulativeGasUsed": "0xb85c8d",
      "logs": [
        {
          "address": "0xe03a1074c86cfedd5c142c4f04f1a1536e203543",
          "topics": [
            "0xdd466e674ea557f56295e2d0218a125ea4b4f0f6f3307b95f85e6110838d6438",
            "0x4168b052bf66ccb443868298147b01184d09a06a4ae7a2bc9ffc75d546ea35c5",
            "0x0000000000000000000000000000000000000000000000000000000000000000",
            "0x000000000000000000000000598c00ba505de7c9f5059e163570c9059cfcd19f"
          ],
          "data": "0x0000000000000000000000000000000000000000000000000000000000000fa0000000000000000000000000000000000000000000000000000000000000003c000000000000000000000000d82ef7e7cf1b96dadd0703b47274835a996f48800000000000000000000000000000000000000000000346e3640e438a30eaff5bfffffffffffffffffffffffffffffffffffffffffffffffffffffffffffcfa41",
          "blockHash": "0xc2a49b14341ab1b56065c770d8ca2e0056955167f47962b74ed4c69b4a015169",
          "blockNumber": "0x9d07c4",
          "blockTimestamp": "0x6996b754",
          "transactionHash": "0x631c3370e6aa7a1655b6b5e3811be26623957282768938565879fe88de816ffd",
          "transactionIndex": "0x3a",
          "logIndex": "0x3c",
          "removed": false
        }
      ],
      "logsBloom": "0x00000000000000000000000000000000000800000000000000000000000000000000000000000000000400000000000000000100000000000000000000000000000000000000000000020000000000000000000400000000000000000000000000000000020000000000000000000800000000000000100000000000000000000000000000000008000000000000000000000001040000000000000000200000000000000000000000000000000000000000000000000000000000000000000000000000000000000000000000000000000000001000000000000000000020001000000000000000000000000000000000000000000000000000000000000000",
      "type": "0x2",
      "transactionHash": "0x631c3370e6aa7a1655b6b5e3811be26623957282768938565879fe88de816ffd",
      "transactionIndex": "0x3a",
      "blockHash": "0xc2a49b14341ab1b56065c770d8ca2e0056955167f47962b74ed4c69b4a015169",
      "blockNumber": "0x9d07c4",
      "gasUsed": "0xcafe",
      "effectiveGasPrice": "0x92a3a1",
      "from": "0xfa2d3c6ae65d9a72c464dafc0bed82062c67d1a7",
      "to": "0xe03a1074c86cfedd5c142c4f04f1a1536e203543",
      "contractAddress": null
    }
  ],
  "libraries": [],
  "pending": [],
  "returns": {},
  "timestamp": 1771485014170,
  "chain": 11155111,
  "commit": "a58428a"
}